{
  "_format": "hh-sol-artifact-1",
  "contractName": "VotingContract",
  "sourceName": "contracts/VotingContract.sol",
  "abi": [
    {
      "inputs": [],
      "stateMutability": "nonpayable",
      "type": "constructor"
    },
    {
      "anonymous": false,
      "inputs": [
        {
          "indexed": true,
          "internalType": "uint256",
          "name": "candidateId",
          "type": "uint256"
        },
        {
          "indexed": false,
          "internalType": "string",
          "name": "age",
          "type": "string"
        },
        {
          "indexed": false,
          "internalType": "string",
          "name": "name",
          "type": "string"
        },
        {
          "indexed": false,
          "internalType": "string",
          "name": "image",
          "type": "string"
        },
        {
          "indexed": false,
          "internalType": "uint256",
          "name": "voteCount",
          "type": "uint256"
        },
        {
          "indexed": false,
          "internalType": "address",
          "name": "_address",
          "type": "address"
        },
        {
          "indexed": false,
          "internalType": "string",
          "name": "ipfs",
          "type": "string"
        }
      ],
      "name": "CandidateCreate",
      "type": "event"
    },
    {
      "anonymous": false,
      "inputs": [
        {
          "indexed": true,
          "internalType": "uint256",
          "name": "voter_voterId",
          "type": "uint256"
        },
        {
          "indexed": false,
          "internalType": "string",
          "name": "voter_name",
          "type": "string"
        },
        {
          "indexed": false,
          "internalType": "string",
          "name": "voter_image",
          "type": "string"
        },
        {
          "indexed": false,
          "internalType": "address",
          "name": "voter_address",
          "type": "address"
        },
        {
          "indexed": false,
          "internalType": "uint256",
          "name": "voter_allowed",
          "type": "uint256"
        },
        {
          "indexed": false,
          "internalType": "bool",
          "name": "voter_voted",
          "type": "bool"
        },
        {
          "indexed": false,
          "internalType": "uint256",
          "name": "voter_vote",
          "type": "uint256"
        },
        {
          "indexed": false,
          "internalType": "string",
          "name": "voter_ipfs",
          "type": "string"
        }
      ],
      "name": "VoterCreate",
      "type": "event"
    },
    {
      "inputs": [],
      "name": "_candidateId",
      "outputs": [
        {
          "internalType": "uint256",
          "name": "_value",
          "type": "uint256"
        }
      ],
      "stateMutability": "view",
      "type": "function"
    },
    {
      "inputs": [],
      "name": "_voterId",
      "outputs": [
        {
          "internalType": "uint256",
          "name": "_value",
          "type": "uint256"
        }
      ],
      "stateMutability": "view",
      "type": "function"
    },
    {
      "inputs": [
        {
          "internalType": "uint256",
          "name": "",
          "type": "uint256"
        }
      ],
      "name": "candidateAddress",
      "outputs": [
        {
          "internalType": "address",
          "name": "",
          "type": "address"
        }
      ],
      "stateMutability": "view",
      "type": "function"
    },
    {
      "inputs": [
        {
          "internalType": "address",
          "name": "",
          "type": "address"
        }
      ],
      "name": "candidates",
      "outputs": [
        {
          "internalType": "uint256",
          "name": "candidateId",
          "type": "uint256"
        },
        {
          "internalType": "string",
          "name": "age",
          "type": "string"
        },
        {
          "internalType": "string",
          "name": "name",
          "type": "string"
        },
        {
          "internalType": "string",
          "name": "image",
          "type": "string"
        },
        {
          "internalType": "uint256",
          "name": "voteCount",
          "type": "uint256"
        },
        {
          "internalType": "address",
          "name": "_address",
          "type": "address"
        },
        {
          "internalType": "string",
          "name": "ipfs",
          "type": "string"
        }
      ],
      "stateMutability": "view",
      "type": "function"
    },
    {
      "inputs": [],
      "name": "getAllVoterData",
      "outputs": [
        {
          "components": [
            {
              "internalType": "uint256",
              "name": "voter_voterId",
              "type": "uint256"
            },
            {
              "internalType": "string",
              "name": "voter_name",
              "type": "string"
            },
            {
              "internalType": "string",
              "name": "voter_image",
              "type": "string"
            },
            {
              "internalType": "address",
              "name": "voter_address",
              "type": "address"
            },
            {
              "internalType": "uint256",
              "name": "voter_allowed",
              "type": "uint256"
            },
            {
              "internalType": "bool",
              "name": "voter_voted",
              "type": "bool"
            },
            {
              "internalType": "uint256",
              "name": "voter_vote",
              "type": "uint256"
            },
            {
              "internalType": "string",
              "name": "voter_ipfs",
              "type": "string"
            }
          ],
          "internalType": "struct VotingContract.Voter[]",
          "name": "",
          "type": "tuple[]"
        }
      ],
      "stateMutability": "view",
      "type": "function"
    },
    {
      "inputs": [],
      "name": "getCandidate",
      "outputs": [
        {
          "internalType": "address[]",
          "name": "",
          "type": "address[]"
        }
      ],
      "stateMutability": "view",
      "type": "function"
    },
    {
      "inputs": [],
      "name": "getCandidateLength",
      "outputs": [
        {
          "internalType": "uint256",
          "name": "",
          "type": "uint256"
        }
      ],
      "stateMutability": "view",
      "type": "function"
    },
    {
      "inputs": [
        {
          "internalType": "address",
          "name": "_address",
          "type": "address"
        }
      ],
      "name": "getCandidatedata",
      "outputs": [
        {
          "internalType": "string",
          "name": "",
          "type": "string"
        },
        {
          "internalType": "string",
          "name": "",
          "type": "string"
        },
        {
          "internalType": "uint256",
          "name": "",
          "type": "uint256"
        },
        {
          "internalType": "string",
          "name": "",
          "type": "string"
        },
        {
          "internalType": "uint256",
          "name": "",
          "type": "uint256"
        },
        {
          "internalType": "string",
          "name": "",
          "type": "string"
        },
        {
          "internalType": "address",
          "name": "",
          "type": "address"
        }
      ],
      "stateMutability": "view",
      "type": "function"
    },
    {
      "inputs": [],
      "name": "getVotedVoterList",
      "outputs": [
        {
          "internalType": "address[]",
          "name": "",
          "type": "address[]"
        }
      ],
      "stateMutability": "view",
      "type": "function"
    },
    {
      "inputs": [],
      "name": "getVotedVoters",
      "outputs": [
        {
          "internalType": "address[]",
          "name": "",
          "type": "address[]"
        }
      ],
      "stateMutability": "view",
      "type": "function"
    },
    {
      "inputs": [
        {
          "internalType": "address",
          "name": "_address",
          "type": "address"
        }
      ],
      "name": "getVoterData",
      "outputs": [
        {
          "internalType": "uint256",
          "name": "",
          "type": "uint256"
        },
        {
          "internalType": "string",
          "name": "",
          "type": "string"
        },
        {
          "internalType": "string",
          "name": "",
          "type": "string"
        },
        {
          "internalType": "address",
          "name": "",
          "type": "address"
        },
        {
          "internalType": "string",
          "name": "",
          "type": "string"
        },
        {
          "internalType": "uint256",
          "name": "",
          "type": "uint256"
        },
        {
          "internalType": "bool",
          "name": "",
          "type": "bool"
        }
      ],
      "stateMutability": "view",
      "type": "function"
    },
    {
      "inputs": [],
      "name": "getVoterLength",
      "outputs": [
        {
          "internalType": "uint256",
          "name": "",
          "type": "uint256"
        }
      ],
      "stateMutability": "view",
      "type": "function"
    },
    {
      "inputs": [],
      "name": "getVoterList",
      "outputs": [
        {
          "internalType": "address[]",
          "name": "",
          "type": "address[]"
        }
      ],
      "stateMutability": "view",
      "type": "function"
    },
    {
      "inputs": [
        {
          "internalType": "address",
          "name": "_address",
          "type": "address"
        },
        {
          "internalType": "string",
          "name": "_age",
          "type": "string"
        },
        {
          "internalType": "string",
          "name": "_name",
          "type": "string"
        },
        {
          "internalType": "string",
          "name": "_image",
          "type": "string"
        },
        {
          "internalType": "string",
          "name": "_ipfs",
          "type": "string"
        }
      ],
      "name": "setCandidate",
      "outputs": [],
      "stateMutability": "nonpayable",
      "type": "function"
    },
    {
      "inputs": [
        {
          "internalType": "address",
          "name": "_candidateAddress",
          "type": "address"
        },
        {
          "internalType": "uint256",
          "name": "_candidateVoteId",
          "type": "uint256"
        }
      ],
      "name": "vote",
      "outputs": [],
      "stateMutability": "nonpayable",
      "type": "function"
    },
    {
      "inputs": [
        {
          "internalType": "uint256",
          "name": "",
          "type": "uint256"
        }
      ],
      "name": "votedVoters",
      "outputs": [
        {
          "internalType": "address",
          "name": "",
          "type": "address"
        }
      ],
      "stateMutability": "view",
      "type": "function"
    },
    {
      "inputs": [
        {
          "internalType": "address",
          "name": "_address",
          "type": "address"
        },
        {
          "internalType": "string",
          "name": "_name",
          "type": "string"
        },
        {
          "internalType": "string",
          "name": "_image",
          "type": "string"
        },
        {
          "internalType": "string",
          "name": "_ipfs",
          "type": "string"
        }
      ],
      "name": "voterRight",
      "outputs": [],
      "stateMutability": "nonpayable",
      "type": "function"
    },
    {
      "inputs": [
        {
          "internalType": "address",
          "name": "",
          "type": "address"
        }
      ],
      "name": "voters",
      "outputs": [
        {
          "internalType": "uint256",
          "name": "voter_voterId",
          "type": "uint256"
        },
        {
          "internalType": "string",
          "name": "voter_name",
          "type": "string"
        },
        {
          "internalType": "string",
          "name": "voter_image",
          "type": "string"
        },
        {
          "internalType": "address",
          "name": "voter_address",
          "type": "address"
        },
        {
          "internalType": "uint256",
          "name": "voter_allowed",
          "type": "uint256"
        },
        {
          "internalType": "bool",
          "name": "voter_voted",
          "type": "bool"
        },
        {
          "internalType": "uint256",
          "name": "voter_vote",
          "type": "uint256"
        },
        {
          "internalType": "string",
          "name": "voter_ipfs",
          "type": "string"
        }
      ],
      "stateMutability": "view",
      "type": "function"
    },
    {
      "inputs": [
        {
          "internalType": "uint256",
          "name": "",
          "type": "uint256"
        }
      ],
      "name": "votersAddress",
      "outputs": [
        {
          "internalType": "address",
          "name": "",
          "type": "address"
        }
      ],
      "stateMutability": "view",
      "type": "function"
    },
    {
      "inputs": [],
      "name": "votingOrganizer",
      "outputs": [
        {
          "internalType": "address",
          "name": "",
          "type": "address"
        }
      ],
      "stateMutability": "view",
      "type": "function"
    }
  ],
  "bytecode": "0x608060405234801561001057600080fd5b5033600260006101000a81548173ffffffffffffffffffffffffffffffffffffffff021916908373ffffffffffffffffffffffffffffffffffffffff160217905550612f38806100616000396000f3fe608060405234801561001057600080fd5b506004361061012c5760003560e01c80638e945685116100ad578063b63c82ca11610071578063b63c82ca1461036e578063b9be3152146103a4578063c91ec712146103c2578063f7522a83146103de578063f87265ba146103fc5761012c565b80638e945685146102a75780638fb4cd80146102c5578063a3ec138d146102fb578063a738896714610332578063b28d92ae146103505761012c565b80635cc48aa7116100f45780635cc48aa7146101e95780635f74bbde1461020757806370218b85146102235780637831ffb3146102415780638ab66a90146102715761012c565b80630361419e1461013157806305ad45a41461014d578063189d29581461016b5780633a88251a1461018957806343242daa146101b9575b600080fd5b61014b600480360381019061014691906121b7565b61041a565b005b6101556106dd565b604051610162919061228b565b60405180910390f35b6101736106ea565b6040516101809190612364565b60405180910390f35b6101a3600480360381019061019e91906123b2565b610778565b6040516101b091906123ee565b60405180910390f35b6101d360048036038101906101ce91906123b2565b6107b7565b6040516101e091906123ee565b60405180910390f35b6101f16107f6565b6040516101fe91906123ee565b60405180910390f35b610221600480360381019061021c9190612409565b61081c565b005b61022b610a62565b6040516102389190612364565b60405180910390f35b61025b600480360381019061025691906123b2565b610af0565b60405161026891906123ee565b60405180910390f35b61028b60048036038101906102869190612449565b610b2f565b60405161029e97969594939291906124fe565b60405180910390f35b6102af610db1565b6040516102bc9190612364565b60405180910390f35b6102df60048036038101906102da9190612449565b610e3f565b6040516102f297969594939291906125a4565b60405180910390f35b61031560048036038101906103109190612449565b611207565b604051610329989796959493929190612628565b60405180910390f35b61033a611414565b604051610347919061228b565b60405180910390f35b610358611420565b6040516103659190612364565b60405180910390f35b61038860048036038101906103839190612449565b6114ae565b60405161039b97969594939291906126bb565b60405180910390f35b6103ac6118f5565b6040516103b9919061228b565b60405180910390f35b6103dc60048036038101906103d79190612746565b611901565b005b6103e6611b58565b6040516103f3919061228b565b60405180910390f35b610404611b65565b6040516104119190612a19565b60405180910390f35b3373ffffffffffffffffffffffffffffffffffffffff16600260009054906101000a900473ffffffffffffffffffffffffffffffffffffffff1673ffffffffffffffffffffffffffffffffffffffff16146104aa576040517f08c379a00000000000000000000000000000000000000000000000000000000081526004016104a190612aad565b60405180910390fd5b6104b46000611edb565b60006104c06000611ef1565b90506000600760008773ffffffffffffffffffffffffffffffffffffffff1673ffffffffffffffffffffffffffffffffffffffff1681526020019081526020016000209050600081600401541461054c576040517f08c379a000000000000000000000000000000000000000000000000000000000815260040161054390612b19565b60405180910390fd5b600181600401819055508481600101908051906020019061056e929190611eff565b5083816002019080519060200190610587929190611eff565b50858160030160006101000a81548173ffffffffffffffffffffffffffffffffffffffff021916908373ffffffffffffffffffffffffffffffffffffffff1602179055508181600001819055506103e8816006018190555060008160050160006101000a81548160ff02191690831515021790555082816007019080519060200190610614929190611eff565b506006869080600181540180825580915050600190039060005260206000200160009091909190916101000a81548173ffffffffffffffffffffffffffffffffffffffff021916908373ffffffffffffffffffffffffffffffffffffffff160217905550817f0d1b980df89c1a3954567752ee1e92bdf546b205af1cc94b471ae6e71b8f859c86868985600401548660050160009054906101000a900460ff1687600601548a6040516106cd9796959493929190612b39565b60405180910390a2505050505050565b6000600680549050905090565b6060600580548060200260200160405190810160405280929190818152602001828054801561076e57602002820191906000526020600020905b8160009054906101000a900473ffffffffffffffffffffffffffffffffffffffff1673ffffffffffffffffffffffffffffffffffffffff1681526020019060010190808311610724575b5050505050905090565b6003818154811061078857600080fd5b906000526020600020016000915054906101000a900473ffffffffffffffffffffffffffffffffffffffff1681565b600681815481106107c757600080fd5b906000526020600020016000915054906101000a900473ffffffffffffffffffffffffffffffffffffffff1681565b600260009054906101000a900473ffffffffffffffffffffffffffffffffffffffff1681565b6000600760003373ffffffffffffffffffffffffffffffffffffffff1673ffffffffffffffffffffffffffffffffffffffff16815260200190815260200160002090506001600760003373ffffffffffffffffffffffffffffffffffffffff1673ffffffffffffffffffffffffffffffffffffffff16815260200190815260200160002060040154146108e4576040517f08c379a00000000000000000000000000000000000000000000000000000000081526004016108db90612c09565b60405180910390fd5b60001515600760003373ffffffffffffffffffffffffffffffffffffffff1673ffffffffffffffffffffffffffffffffffffffff16815260200190815260200160002060050160009054906101000a900460ff1615151461097a576040517f08c379a000000000000000000000000000000000000000000000000000000000815260040161097190612c75565b60405180910390fd5b60018160050160006101000a81548160ff0219169083151502179055508181600601819055506001600460008573ffffffffffffffffffffffffffffffffffffffff1673ffffffffffffffffffffffffffffffffffffffff16815260200190815260200160002060040160008282546109f39190612cc4565b925050819055506005339080600181540180825580915050600190039060005260206000200160009091909190916101000a81548173ffffffffffffffffffffffffffffffffffffffff021916908373ffffffffffffffffffffffffffffffffffffffff160217905550505050565b60606003805480602002602001604051908101604052809291908181526020018280548015610ae657602002820191906000526020600020905b8160009054906101000a900473ffffffffffffffffffffffffffffffffffffffff1673ffffffffffffffffffffffffffffffffffffffff1681526020019060010190808311610a9c575b5050505050905090565b60058181548110610b0057600080fd5b906000526020600020016000915054906101000a900473ffffffffffffffffffffffffffffffffffffffff1681565b6004602052806000526040600020600091509050806000015490806001018054610b5890612d49565b80601f0160208091040260200160405190810160405280929190818152602001828054610b8490612d49565b8015610bd15780601f10610ba657610100808354040283529160200191610bd1565b820191906000526020600020905b815481529060010190602001808311610bb457829003601f168201915b505050505090806002018054610be690612d49565b80601f0160208091040260200160405190810160405280929190818152602001828054610c1290612d49565b8015610c5f5780601f10610c3457610100808354040283529160200191610c5f565b820191906000526020600020905b815481529060010190602001808311610c4257829003601f168201915b505050505090806003018054610c7490612d49565b80601f0160208091040260200160405190810160405280929190818152602001828054610ca090612d49565b8015610ced5780601f10610cc257610100808354040283529160200191610ced565b820191906000526020600020905b815481529060010190602001808311610cd057829003601f168201915b5050505050908060040154908060050160009054906101000a900473ffffffffffffffffffffffffffffffffffffffff1690806006018054610d2e90612d49565b80601f0160208091040260200160405190810160405280929190818152602001828054610d5a90612d49565b8015610da75780601f10610d7c57610100808354040283529160200191610da7565b820191906000526020600020905b815481529060010190602001808311610d8a57829003601f168201915b5050505050905087565b60606005805480602002602001604051908101604052809291908181526020018280548015610e3557602002820191906000526020600020905b8160009054906101000a900473ffffffffffffffffffffffffffffffffffffffff1673ffffffffffffffffffffffffffffffffffffffff1681526020019060010190808311610deb575b5050505050905090565b600060608060006060600080600760008973ffffffffffffffffffffffffffffffffffffffff1673ffffffffffffffffffffffffffffffffffffffff16815260200190815260200160002060000154600760008a73ffffffffffffffffffffffffffffffffffffffff1673ffffffffffffffffffffffffffffffffffffffff168152602001908152602001600020600101600760008b73ffffffffffffffffffffffffffffffffffffffff1673ffffffffffffffffffffffffffffffffffffffff168152602001908152602001600020600201600760008c73ffffffffffffffffffffffffffffffffffffffff1673ffffffffffffffffffffffffffffffffffffffff16815260200190815260200160002060030160009054906101000a900473ffffffffffffffffffffffffffffffffffffffff16600760008d73ffffffffffffffffffffffffffffffffffffffff1673ffffffffffffffffffffffffffffffffffffffff168152602001908152602001600020600701600760008e73ffffffffffffffffffffffffffffffffffffffff1673ffffffffffffffffffffffffffffffffffffffff16815260200190815260200160002060040154600760008f73ffffffffffffffffffffffffffffffffffffffff1673ffffffffffffffffffffffffffffffffffffffff16815260200190815260200160002060050160009054906101000a900460ff1685805461105690612d49565b80601f016020809104026020016040519081016040528092919081815260200182805461108290612d49565b80156110cf5780601f106110a4576101008083540402835291602001916110cf565b820191906000526020600020905b8154815290600101906020018083116110b257829003601f168201915b505050505095508480546110e290612d49565b80601f016020809104026020016040519081016040528092919081815260200182805461110e90612d49565b801561115b5780601f106111305761010080835404028352916020019161115b565b820191906000526020600020905b81548152906001019060200180831161113e57829003601f168201915b5050505050945082805461116e90612d49565b80601f016020809104026020016040519081016040528092919081815260200182805461119a90612d49565b80156111e75780601f106111bc576101008083540402835291602001916111e7565b820191906000526020600020905b8154815290600101906020018083116111ca57829003601f168201915b505050505092509650965096509650965096509650919395979092949650565b600760205280600052604060002060009150905080600001549080600101805461123090612d49565b80601f016020809104026020016040519081016040528092919081815260200182805461125c90612d49565b80156112a95780601f1061127e576101008083540402835291602001916112a9565b820191906000526020600020905b81548152906001019060200180831161128c57829003601f168201915b5050505050908060020180546112be90612d49565b80601f01602080910402602001604051908101604052809291908181526020018280546112ea90612d49565b80156113375780601f1061130c57610100808354040283529160200191611337565b820191906000526020600020905b81548152906001019060200180831161131a57829003601f168201915b5050505050908060030160009054906101000a900473ffffffffffffffffffffffffffffffffffffffff16908060040154908060050160009054906101000a900460ff169080600601549080600701805461139190612d49565b80601f01602080910402602001604051908101604052809291908181526020018280546113bd90612d49565b801561140a5780601f106113df5761010080835404028352916020019161140a565b820191906000526020600020905b8154815290600101906020018083116113ed57829003601f168201915b5050505050905088565b60018060000154905081565b606060068054806020026020016040519081016040528092919081815260200182805480156114a457602002820191906000526020600020905b8160009054906101000a900473ffffffffffffffffffffffffffffffffffffffff1673ffffffffffffffffffffffffffffffffffffffff168152602001906001019080831161145a575b5050505050905090565b60608060006060600060606000600460008973ffffffffffffffffffffffffffffffffffffffff1673ffffffffffffffffffffffffffffffffffffffff168152602001908152602001600020600101600460008a73ffffffffffffffffffffffffffffffffffffffff1673ffffffffffffffffffffffffffffffffffffffff168152602001908152602001600020600201600460008b73ffffffffffffffffffffffffffffffffffffffff1673ffffffffffffffffffffffffffffffffffffffff16815260200190815260200160002060000154600460008c73ffffffffffffffffffffffffffffffffffffffff1673ffffffffffffffffffffffffffffffffffffffff168152602001908152602001600020600301600460008d73ffffffffffffffffffffffffffffffffffffffff1673ffffffffffffffffffffffffffffffffffffffff16815260200190815260200160002060040154600460008e73ffffffffffffffffffffffffffffffffffffffff1673ffffffffffffffffffffffffffffffffffffffff168152602001908152602001600020600601600460008f73ffffffffffffffffffffffffffffffffffffffff1673ffffffffffffffffffffffffffffffffffffffff16815260200190815260200160002060050160009054906101000a900473ffffffffffffffffffffffffffffffffffffffff168680546116b890612d49565b80601f01602080910402602001604051908101604052809291908181526020018280546116e490612d49565b80156117315780601f1061170657610100808354040283529160200191611731565b820191906000526020600020905b81548152906001019060200180831161171457829003601f168201915b5050505050965085805461174490612d49565b80601f016020809104026020016040519081016040528092919081815260200182805461177090612d49565b80156117bd5780601f10611792576101008083540402835291602001916117bd565b820191906000526020600020905b8154815290600101906020018083116117a057829003601f168201915b505050505095508380546117d090612d49565b80601f01602080910402602001604051908101604052809291908181526020018280546117fc90612d49565b80156118495780601f1061181e57610100808354040283529160200191611849565b820191906000526020600020905b81548152906001019060200180831161182c57829003601f168201915b5050505050935081805461185c90612d49565b80601f016020809104026020016040519081016040528092919081815260200182805461188890612d49565b80156118d55780601f106118aa576101008083540402835291602001916118d5565b820191906000526020600020905b8154815290600101906020018083116118b857829003601f168201915b505050505091509650965096509650965096509650919395979092949650565b60008060000154905081565b3373ffffffffffffffffffffffffffffffffffffffff16600260009054906101000a900473ffffffffffffffffffffffffffffffffffffffff1673ffffffffffffffffffffffffffffffffffffffff1614611991576040517f08c379a000000000000000000000000000000000000000000000000000000000815260040161198890612ded565b60405180910390fd5b61199b6001611edb565b60006119a76001611ef1565b90506000600460008873ffffffffffffffffffffffffffffffffffffffff1673ffffffffffffffffffffffffffffffffffffffff168152602001908152602001600020905085816001019080519060200190611a04929190611eff565b5084816002019080519060200190611a1d929190611eff565b5081816000018190555083816003019080519060200190611a3f929190611eff565b5060008160040181905550868160050160006101000a81548173ffffffffffffffffffffffffffffffffffffffff021916908373ffffffffffffffffffffffffffffffffffffffff16021790555082816006019080519060200190611aa5929190611eff565b506003879080600181540180825580915050600190039060005260206000200160009091909190916101000a81548173ffffffffffffffffffffffffffffffffffffffff021916908373ffffffffffffffffffffffffffffffffffffffff160217905550817fd297f12b256bb8485a6013fb5e302017018123e99a0ebb20756c09e1707b4b9087878785600401548c89604051611b4796959493929190612e0d565b60405180910390a250505050505050565b6000600380549050905090565b6060600060068054905067ffffffffffffffff811115611b8857611b8761208c565b5b604051908082528060200260200182016040528015611bc157816020015b611bae611f85565b815260200190600190039081611ba65790505b50905060005b600680549050811015611ed3576007600060068381548110611bec57611beb612e8a565b5b9060005260206000200160009054906101000a900473ffffffffffffffffffffffffffffffffffffffff1673ffffffffffffffffffffffffffffffffffffffff1673ffffffffffffffffffffffffffffffffffffffff1681526020019081526020016000206040518061010001604052908160008201548152602001600182018054611c7790612d49565b80601f0160208091040260200160405190810160405280929190818152602001828054611ca390612d49565b8015611cf05780601f10611cc557610100808354040283529160200191611cf0565b820191906000526020600020905b815481529060010190602001808311611cd357829003601f168201915b50505050508152602001600282018054611d0990612d49565b80601f0160208091040260200160405190810160405280929190818152602001828054611d3590612d49565b8015611d825780601f10611d5757610100808354040283529160200191611d82565b820191906000526020600020905b815481529060010190602001808311611d6557829003601f168201915b505050505081526020016003820160009054906101000a900473ffffffffffffffffffffffffffffffffffffffff1673ffffffffffffffffffffffffffffffffffffffff1673ffffffffffffffffffffffffffffffffffffffff168152602001600482015481526020016005820160009054906101000a900460ff1615151515815260200160068201548152602001600782018054611e2090612d49565b80601f0160208091040260200160405190810160405280929190818152602001828054611e4c90612d49565b8015611e995780601f10611e6e57610100808354040283529160200191611e99565b820191906000526020600020905b815481529060010190602001808311611e7c57829003601f168201915b505050505081525050828281518110611eb557611eb4612e8a565b5b60200260200101819052508080611ecb90612eb9565b915050611bc7565b508091505090565b6001816000016000828254019250508190555050565b600081600001549050919050565b828054611f0b90612d49565b90600052602060002090601f016020900481019282611f2d5760008555611f74565b82601f10611f4657805160ff1916838001178555611f74565b82800160010185558215611f74579182015b82811115611f73578251825591602001919060010190611f58565b5b509050611f819190611fe2565b5090565b604051806101000160405280600081526020016060815260200160608152602001600073ffffffffffffffffffffffffffffffffffffffff1681526020016000815260200160001515815260200160008152602001606081525090565b5b80821115611ffb576000816000905550600101611fe3565b5090565b6000604051905090565b600080fd5b600080fd5b600073ffffffffffffffffffffffffffffffffffffffff82169050919050565b600061203e82612013565b9050919050565b61204e81612033565b811461205957600080fd5b50565b60008135905061206b81612045565b92915050565b600080fd5b600080fd5b6000601f19601f8301169050919050565b7f4e487b7100000000000000000000000000000000000000000000000000000000600052604160045260246000fd5b6120c48261207b565b810181811067ffffffffffffffff821117156120e3576120e261208c565b5b80604052505050565b60006120f6611fff565b905061210282826120bb565b919050565b600067ffffffffffffffff8211156121225761212161208c565b5b61212b8261207b565b9050602081019050919050565b82818337600083830152505050565b600061215a61215584612107565b6120ec565b90508281526020810184848401111561217657612175612076565b5b612181848285612138565b509392505050565b600082601f83011261219e5761219d612071565b5b81356121ae848260208601612147565b91505092915050565b600080600080608085870312156121d1576121d0612009565b5b60006121df8782880161205c565b945050602085013567ffffffffffffffff811115612200576121ff61200e565b5b61220c87828801612189565b935050604085013567ffffffffffffffff81111561222d5761222c61200e565b5b61223987828801612189565b925050606085013567ffffffffffffffff81111561225a5761225961200e565b5b61226687828801612189565b91505092959194509250565b6000819050919050565b61228581612272565b82525050565b60006020820190506122a0600083018461227c565b92915050565b600081519050919050565b600082825260208201905092915050565b6000819050602082019050919050565b6122db81612033565b82525050565b60006122ed83836122d2565b60208301905092915050565b6000602082019050919050565b6000612311826122a6565b61231b81856122b1565b9350612326836122c2565b8060005b8381101561235757815161233e88826122e1565b9750612349836122f9565b92505060018101905061232a565b5085935050505092915050565b6000602082019050818103600083015261237e8184612306565b905092915050565b61238f81612272565b811461239a57600080fd5b50565b6000813590506123ac81612386565b92915050565b6000602082840312156123c8576123c7612009565b5b60006123d68482850161239d565b91505092915050565b6123e881612033565b82525050565b600060208201905061240360008301846123df565b92915050565b600080604083850312156124205761241f612009565b5b600061242e8582860161205c565b925050602061243f8582860161239d565b9150509250929050565b60006020828403121561245f5761245e612009565b5b600061246d8482850161205c565b91505092915050565b600081519050919050565b600082825260208201905092915050565b60005b838110156124b0578082015181840152602081019050612495565b838111156124bf576000848401525b50505050565b60006124d082612476565b6124da8185612481565b93506124ea818560208601612492565b6124f38161207b565b840191505092915050565b600060e082019050612513600083018a61227c565b818103602083015261252581896124c5565b9050818103604083015261253981886124c5565b9050818103606083015261254d81876124c5565b905061255c608083018661227c565b61256960a08301856123df565b81810360c083015261257b81846124c5565b905098975050505050505050565b60008115159050919050565b61259e81612589565b82525050565b600060e0820190506125b9600083018a61227c565b81810360208301526125cb81896124c5565b905081810360408301526125df81886124c5565b90506125ee60608301876123df565b818103608083015261260081866124c5565b905061260f60a083018561227c565b61261c60c0830184612595565b98975050505050505050565b60006101008201905061263e600083018b61227c565b8181036020830152612650818a6124c5565b9050818103604083015261266481896124c5565b905061267360608301886123df565b612680608083018761227c565b61268d60a0830186612595565b61269a60c083018561227c565b81810360e08301526126ac81846124c5565b90509998505050505050505050565b600060e08201905081810360008301526126d5818a6124c5565b905081810360208301526126e981896124c5565b90506126f8604083018861227c565b818103606083015261270a81876124c5565b9050612719608083018661227c565b81810360a083015261272b81856124c5565b905061273a60c08301846123df565b98975050505050505050565b600080600080600060a0868803121561276257612761612009565b5b60006127708882890161205c565b955050602086013567ffffffffffffffff8111156127915761279061200e565b5b61279d88828901612189565b945050604086013567ffffffffffffffff8111156127be576127bd61200e565b5b6127ca88828901612189565b935050606086013567ffffffffffffffff8111156127eb576127ea61200e565b5b6127f788828901612189565b925050608086013567ffffffffffffffff8111156128185761281761200e565b5b61282488828901612189565b9150509295509295909350565b600081519050919050565b600082825260208201905092915050565b6000819050602082019050919050565b61286681612272565b82525050565b600082825260208201905092915050565b600061288882612476565b612892818561286c565b93506128a2818560208601612492565b6128ab8161207b565b840191505092915050565b6128bf81612589565b82525050565b6000610100830160008301516128de600086018261285d565b50602083015184820360208601526128f6828261287d565b91505060408301518482036040860152612910828261287d565b915050606083015161292560608601826122d2565b506080830151612938608086018261285d565b5060a083015161294b60a08601826128b6565b5060c083015161295e60c086018261285d565b5060e083015184820360e0860152612976828261287d565b9150508091505092915050565b600061298f83836128c5565b905092915050565b6000602082019050919050565b60006129af82612831565b6129b9818561283c565b9350836020820285016129cb8561284d565b8060005b85811015612a0757848403895281516129e88582612983565b94506129f383612997565b925060208a019950506001810190506129cf565b50829750879550505050505092915050565b60006020820190508181036000830152612a3381846129a4565b905092915050565b7f596f75206e65656420746f20626520746865206f7267616e697a657220746f2060008201527f637265617465206120766f746572000000000000000000000000000000000000602082015250565b6000612a97602e83612481565b9150612aa282612a3b565b604082019050919050565b60006020820190508181036000830152612ac681612a8a565b9050919050565b7f566f74657220616c726561647920657869737473000000000000000000000000600082015250565b6000612b03601483612481565b9150612b0e82612acd565b602082019050919050565b60006020820190508181036000830152612b3281612af6565b9050919050565b600060e0820190508181036000830152612b53818a6124c5565b90508181036020830152612b6781896124c5565b9050612b7660408301886123df565b612b83606083018761227c565b612b906080830186612595565b612b9d60a083018561227c565b81810360c0830152612baf81846124c5565b905098975050505050505050565b7f596f7520617265206e6f7420616c6c6f77656420746f20766f74650000000000600082015250565b6000612bf3601b83612481565b9150612bfe82612bbd565b602082019050919050565b60006020820190508181036000830152612c2281612be6565b9050919050565b7f596f75206861766520616c726561647920766f74656400000000000000000000600082015250565b6000612c5f601683612481565b9150612c6a82612c29565b602082019050919050565b60006020820190508181036000830152612c8e81612c52565b9050919050565b7f4e487b7100000000000000000000000000000000000000000000000000000000600052601160045260246000fd5b6000612ccf82612272565b9150612cda83612272565b9250827fffffffffffffffffffffffffffffffffffffffffffffffffffffffffffffffff03821115612d0f57612d0e612c95565b5b828201905092915050565b7f4e487b7100000000000000000000000000000000000000000000000000000000600052602260045260246000fd5b60006002820490506001821680612d6157607f821691505b60208210811415612d7557612d74612d1a565b5b50919050565b7f596f75206e65656420746f20626520746865206f7267616e697a657220746f2060008201527f63726561746520612063616e6469646174650000000000000000000000000000602082015250565b6000612dd7603283612481565b9150612de282612d7b565b604082019050919050565b60006020820190508181036000830152612e0681612dca565b9050919050565b600060c0820190508181036000830152612e2781896124c5565b90508181036020830152612e3b81886124c5565b90508181036040830152612e4f81876124c5565b9050612e5e606083018661227c565b612e6b60808301856123df565b81810360a0830152612e7d81846124c5565b9050979650505050505050565b7f4e487b7100000000000000000000000000000000000000000000000000000000600052603260045260246000fd5b6000612ec482612272565b91507fffffffffffffffffffffffffffffffffffffffffffffffffffffffffffffffff821415612ef757612ef6612c95565b5b60018201905091905056fea2646970667358221220d4a0c73a422dde62f7adf844367e66341979a92a3cb982a8d0065d92303a403564736f6c63430008090033",
  "linkReferences": {},
  "deployedLinkReferences": {}
}