{
  "_format": "hh-sol-artifact-1",
  "contractName": "VotingContract",
  "sourceName": "contracts/VotingContract.sol",
  "abi": [
    {
      "inputs": [],
      "stateMutability": "nonpayable",
      "type": "constructor"
    },
    {
      "anonymous": false,
      "inputs": [
        {
          "indexed": true,
          "internalType": "uint256",
          "name": "candidateId",
          "type": "uint256"
        },
        {
          "indexed": false,
          "internalType": "string",
          "name": "age",
          "type": "string"
        },
        {
          "indexed": false,
          "internalType": "string",
          "name": "name",
          "type": "string"
        },
        {
          "indexed": false,
          "internalType": "string",
          "name": "image",
          "type": "string"
        },
        {
          "indexed": false,
          "internalType": "uint256",
          "name": "voteCount",
          "type": "uint256"
        },
        {
          "indexed": false,
          "internalType": "address",
          "name": "_address",
          "type": "address"
        },
        {
          "indexed": false,
          "internalType": "string",
          "name": "ipfs",
          "type": "string"
        }
      ],
      "name": "CandidateCreate",
      "type": "event"
    },
    {
      "anonymous": false,
      "inputs": [
        {
          "indexed": true,
          "internalType": "uint256",
          "name": "voter_voterId",
          "type": "uint256"
        },
        {
          "indexed": false,
          "internalType": "string",
          "name": "voter_name",
          "type": "string"
        },
        {
          "indexed": false,
          "internalType": "string",
          "name": "voter_image",
          "type": "string"
        },
        {
          "indexed": false,
          "internalType": "address",
          "name": "voter_address",
          "type": "address"
        },
        {
          "indexed": false,
          "internalType": "uint256",
          "name": "voter_allowed",
          "type": "uint256"
        },
        {
          "indexed": false,
          "internalType": "bool",
          "name": "voter_voted",
          "type": "bool"
        },
        {
          "indexed": false,
          "internalType": "uint256",
          "name": "voter_vote",
          "type": "uint256"
        },
        {
          "indexed": false,
          "internalType": "string",
          "name": "voter_ipfs",
          "type": "string"
        }
      ],
      "name": "VoterCreate",
      "type": "event"
    },
    {
      "inputs": [],
      "name": "_candidateId",
      "outputs": [
        {
          "internalType": "uint256",
          "name": "_value",
          "type": "uint256"
        }
      ],
      "stateMutability": "view",
      "type": "function"
    },
    {
      "inputs": [],
      "name": "_voterId",
      "outputs": [
        {
          "internalType": "uint256",
          "name": "_value",
          "type": "uint256"
        }
      ],
      "stateMutability": "view",
      "type": "function"
    },
    {
      "inputs": [
        {
          "internalType": "uint256",
          "name": "",
          "type": "uint256"
        }
      ],
      "name": "candidateAddress",
      "outputs": [
        {
          "internalType": "address",
          "name": "",
          "type": "address"
        }
      ],
      "stateMutability": "view",
      "type": "function"
    },
    {
      "inputs": [
        {
          "internalType": "address",
          "name": "",
          "type": "address"
        }
      ],
      "name": "candidates",
      "outputs": [
        {
          "internalType": "uint256",
          "name": "candidateId",
          "type": "uint256"
        },
        {
          "internalType": "string",
          "name": "age",
          "type": "string"
        },
        {
          "internalType": "string",
          "name": "name",
          "type": "string"
        },
        {
          "internalType": "string",
          "name": "image",
          "type": "string"
        },
        {
          "internalType": "uint256",
          "name": "voteCount",
          "type": "uint256"
        },
        {
          "internalType": "address",
          "name": "_address",
          "type": "address"
        },
        {
          "internalType": "string",
          "name": "ipfs",
          "type": "string"
        }
      ],
      "stateMutability": "view",
      "type": "function"
    },
    {
      "inputs": [],
      "name": "getAllVoterData",
      "outputs": [
        {
          "components": [
            {
              "internalType": "uint256",
              "name": "voter_voterId",
              "type": "uint256"
            },
            {
              "internalType": "string",
              "name": "voter_name",
              "type": "string"
            },
            {
              "internalType": "string",
              "name": "voter_image",
              "type": "string"
            },
            {
              "internalType": "address",
              "name": "voter_address",
              "type": "address"
            },
            {
              "internalType": "uint256",
              "name": "voter_allowed",
              "type": "uint256"
            },
            {
              "internalType": "bool",
              "name": "voter_voted",
              "type": "bool"
            },
            {
              "internalType": "uint256",
              "name": "voter_vote",
              "type": "uint256"
            },
            {
              "internalType": "string",
              "name": "voter_ipfs",
              "type": "string"
            }
          ],
          "internalType": "struct VotingContract.Voter[]",
          "name": "",
          "type": "tuple[]"
        }
      ],
      "stateMutability": "view",
      "type": "function"
    },
    {
      "inputs": [],
      "name": "getCandidate",
      "outputs": [
        {
          "internalType": "address[]",
          "name": "",
          "type": "address[]"
        }
      ],
      "stateMutability": "view",
      "type": "function"
    },
    {
      "inputs": [],
      "name": "getCandidateLength",
      "outputs": [
        {
          "internalType": "uint256",
          "name": "",
          "type": "uint256"
        }
      ],
      "stateMutability": "view",
      "type": "function"
    },
    {
      "inputs": [
        {
          "internalType": "address",
          "name": "_address",
          "type": "address"
        }
      ],
      "name": "getCandidatedata",
      "outputs": [
        {
          "internalType": "string",
          "name": "",
          "type": "string"
        },
        {
          "internalType": "string",
          "name": "",
          "type": "string"
        },
        {
          "internalType": "uint256",
          "name": "",
          "type": "uint256"
        },
        {
          "internalType": "string",
          "name": "",
          "type": "string"
        },
        {
          "internalType": "uint256",
          "name": "",
          "type": "uint256"
        },
        {
          "internalType": "string",
          "name": "",
          "type": "string"
        },
        {
          "internalType": "address",
          "name": "",
          "type": "address"
        }
      ],
      "stateMutability": "view",
      "type": "function"
    },
    {
      "inputs": [],
      "name": "getVotedVoters",
      "outputs": [
        {
          "internalType": "address[]",
          "name": "",
          "type": "address[]"
        }
      ],
      "stateMutability": "view",
      "type": "function"
    },
    {
      "inputs": [
        {
          "internalType": "address",
          "name": "_address",
          "type": "address"
        }
      ],
      "name": "getVoterData",
      "outputs": [
        {
          "internalType": "uint256",
          "name": "",
          "type": "uint256"
        },
        {
          "internalType": "string",
          "name": "",
          "type": "string"
        },
        {
          "internalType": "string",
          "name": "",
          "type": "string"
        },
        {
          "internalType": "address",
          "name": "",
          "type": "address"
        },
        {
          "internalType": "string",
          "name": "",
          "type": "string"
        },
        {
          "internalType": "uint256",
          "name": "",
          "type": "uint256"
        },
        {
          "internalType": "bool",
          "name": "",
          "type": "bool"
        }
      ],
      "stateMutability": "view",
      "type": "function"
    },
    {
      "inputs": [],
      "name": "getVoterLength",
      "outputs": [
        {
          "internalType": "uint256",
          "name": "",
          "type": "uint256"
        }
      ],
      "stateMutability": "view",
      "type": "function"
    },
    {
      "inputs": [],
      "name": "getVoterList",
      "outputs": [
        {
          "internalType": "address[]",
          "name": "",
          "type": "address[]"
        }
      ],
      "stateMutability": "view",
      "type": "function"
    },
    {
      "inputs": [
        {
          "internalType": "address",
          "name": "_address",
          "type": "address"
        },
        {
          "internalType": "string",
          "name": "_age",
          "type": "string"
        },
        {
          "internalType": "string",
          "name": "_name",
          "type": "string"
        },
        {
          "internalType": "string",
          "name": "_image",
          "type": "string"
        },
        {
          "internalType": "string",
          "name": "_ipfs",
          "type": "string"
        }
      ],
      "name": "setCandidate",
      "outputs": [],
      "stateMutability": "nonpayable",
      "type": "function"
    },
    {
      "inputs": [
        {
          "internalType": "address",
          "name": "_candidateAddress",
          "type": "address"
        },
        {
          "internalType": "uint256",
          "name": "_candidateVoteId",
          "type": "uint256"
        }
      ],
      "name": "vote",
      "outputs": [],
      "stateMutability": "nonpayable",
      "type": "function"
    },
    {
      "inputs": [
        {
          "internalType": "uint256",
          "name": "",
          "type": "uint256"
        }
      ],
      "name": "votedVoters",
      "outputs": [
        {
          "internalType": "address",
          "name": "",
          "type": "address"
        }
      ],
      "stateMutability": "view",
      "type": "function"
    },
    {
      "inputs": [
        {
          "internalType": "address",
          "name": "_address",
          "type": "address"
        },
        {
          "internalType": "string",
          "name": "_name",
          "type": "string"
        },
        {
          "internalType": "string",
          "name": "_image",
          "type": "string"
        },
        {
          "internalType": "string",
          "name": "_ipfs",
          "type": "string"
        }
      ],
      "name": "voterRight",
      "outputs": [],
      "stateMutability": "nonpayable",
      "type": "function"
    },
    {
      "inputs": [
        {
          "internalType": "address",
          "name": "",
          "type": "address"
        }
      ],
      "name": "voters",
      "outputs": [
        {
          "internalType": "uint256",
          "name": "voter_voterId",
          "type": "uint256"
        },
        {
          "internalType": "string",
          "name": "voter_name",
          "type": "string"
        },
        {
          "internalType": "string",
          "name": "voter_image",
          "type": "string"
        },
        {
          "internalType": "address",
          "name": "voter_address",
          "type": "address"
        },
        {
          "internalType": "uint256",
          "name": "voter_allowed",
          "type": "uint256"
        },
        {
          "internalType": "bool",
          "name": "voter_voted",
          "type": "bool"
        },
        {
          "internalType": "uint256",
          "name": "voter_vote",
          "type": "uint256"
        },
        {
          "internalType": "string",
          "name": "voter_ipfs",
          "type": "string"
        }
      ],
      "stateMutability": "view",
      "type": "function"
    },
    {
      "inputs": [
        {
          "internalType": "uint256",
          "name": "",
          "type": "uint256"
        }
      ],
      "name": "votersAddress",
      "outputs": [
        {
          "internalType": "address",
          "name": "",
          "type": "address"
        }
      ],
      "stateMutability": "view",
      "type": "function"
    },
    {
      "inputs": [],
      "name": "votingOrganizer",
      "outputs": [
        {
          "internalType": "address",
          "name": "",
          "type": "address"
        }
      ],
      "stateMutability": "view",
      "type": "function"
    }
  ],
  "bytecode": "0x608060405234801561001057600080fd5b5033600260006101000a81548173ffffffffffffffffffffffffffffffffffffffff021916908373ffffffffffffffffffffffffffffffffffffffff160217905550612d54806100616000396000f3fe608060405234801561001057600080fd5b50600436106101215760003560e01c80638ab66a90116100ad578063b63c82ca11610071578063b63c82ca14610345578063b9be31521461037b578063c91ec71214610399578063f7522a83146103b5578063f87265ba146103d357610121565b80638ab66a90146102665780638fb4cd801461029c578063a3ec138d146102d2578063a738896714610309578063b28d92ae1461032757610121565b806343242daa116100f457806343242daa146101ae5780635cc48aa7146101de5780635f74bbde146101fc57806370218b85146102185780637831ffb31461023657610121565b80630361419e1461012657806305ad45a414610142578063189d2958146101605780633a88251a1461017e575b600080fd5b610140600480360381019061013b9190611f8e565b6103f1565b005b61014a6106b3565b6040516101579190612062565b60405180910390f35b6101686106c0565b604051610175919061213b565b60405180910390f35b61019860048036038101906101939190612189565b61074e565b6040516101a591906121c5565b60405180910390f35b6101c860048036038101906101c39190612189565b61078d565b6040516101d591906121c5565b60405180910390f35b6101e66107cc565b6040516101f391906121c5565b60405180910390f35b610216600480360381019061021191906121e0565b6107f2565b005b610220610a38565b60405161022d919061213b565b60405180910390f35b610250600480360381019061024b9190612189565b610ac6565b60405161025d91906121c5565b60405180910390f35b610280600480360381019061027b9190612220565b610b05565b60405161029397969594939291906122d5565b60405180910390f35b6102b660048036038101906102b19190612220565b610d87565b6040516102c9979695949392919061237b565b60405180910390f35b6102ec60048036038101906102e79190612220565b610fe1565b6040516103009897969594939291906123ff565b60405180910390f35b6103116111ee565b60405161031e9190612062565b60405180910390f35b61032f6111fa565b60405161033c919061213b565b60405180910390f35b61035f600480360381019061035a9190612220565b611288565b6040516103729796959493929190612492565b60405180910390f35b6103836116cf565b6040516103909190612062565b60405180910390f35b6103b360048036038101906103ae919061251d565b6116db565b005b6103bd61192f565b6040516103ca9190612062565b60405180910390f35b6103db61193c565b6040516103e891906127f0565b60405180910390f35b3373ffffffffffffffffffffffffffffffffffffffff16600260009054906101000a900473ffffffffffffffffffffffffffffffffffffffff1673ffffffffffffffffffffffffffffffffffffffff1614610481576040517f08c379a000000000000000000000000000000000000000000000000000000000815260040161047890612884565b60405180910390fd5b61048b6000611cb2565b60006104976000611cc8565b90506000600760008773ffffffffffffffffffffffffffffffffffffffff1673ffffffffffffffffffffffffffffffffffffffff16815260200190815260200160002090506000816004015414610523576040517f08c379a000000000000000000000000000000000000000000000000000000000815260040161051a906128f0565b60405180910390fd5b81816000018190555084816001019080519060200190610544929190611cd6565b508381600201908051906020019061055d929190611cd6565b50858160030160006101000a81548173ffffffffffffffffffffffffffffffffffffffff021916908373ffffffffffffffffffffffffffffffffffffffff1602179055506001816004018190555060008160050160006101000a81548160ff02191690831515021790555060008160060181905550828160070190805190602001906105ea929190611cd6565b506006869080600181540180825580915050600190039060005260206000200160009091909190916101000a81548173ffffffffffffffffffffffffffffffffffffffff021916908373ffffffffffffffffffffffffffffffffffffffff160217905550817f0d1b980df89c1a3954567752ee1e92bdf546b205af1cc94b471ae6e71b8f859c86868985600401548660050160009054906101000a900460ff1687600601548a6040516106a39796959493929190612910565b60405180910390a2505050505050565b6000600680549050905090565b6060600580548060200260200160405190810160405280929190818152602001828054801561074457602002820191906000526020600020905b8160009054906101000a900473ffffffffffffffffffffffffffffffffffffffff1673ffffffffffffffffffffffffffffffffffffffff16815260200190600101908083116106fa575b5050505050905090565b6003818154811061075e57600080fd5b906000526020600020016000915054906101000a900473ffffffffffffffffffffffffffffffffffffffff1681565b6006818154811061079d57600080fd5b906000526020600020016000915054906101000a900473ffffffffffffffffffffffffffffffffffffffff1681565b600260009054906101000a900473ffffffffffffffffffffffffffffffffffffffff1681565b6000600760003373ffffffffffffffffffffffffffffffffffffffff1673ffffffffffffffffffffffffffffffffffffffff16815260200190815260200160002090506001600760003373ffffffffffffffffffffffffffffffffffffffff1673ffffffffffffffffffffffffffffffffffffffff16815260200190815260200160002060040154146108ba576040517f08c379a00000000000000000000000000000000000000000000000000000000081526004016108b1906129e0565b60405180910390fd5b60001515600760003373ffffffffffffffffffffffffffffffffffffffff1673ffffffffffffffffffffffffffffffffffffffff16815260200190815260200160002060050160009054906101000a900460ff16151514610950576040517f08c379a000000000000000000000000000000000000000000000000000000000815260040161094790612a4c565b60405180910390fd5b60018160050160006101000a81548160ff0219169083151502179055508181600601819055506001600460008573ffffffffffffffffffffffffffffffffffffffff1673ffffffffffffffffffffffffffffffffffffffff16815260200190815260200160002060040160008282546109c99190612a9b565b925050819055506005339080600181540180825580915050600190039060005260206000200160009091909190916101000a81548173ffffffffffffffffffffffffffffffffffffffff021916908373ffffffffffffffffffffffffffffffffffffffff160217905550505050565b60606003805480602002602001604051908101604052809291908181526020018280548015610abc57602002820191906000526020600020905b8160009054906101000a900473ffffffffffffffffffffffffffffffffffffffff1673ffffffffffffffffffffffffffffffffffffffff1681526020019060010190808311610a72575b5050505050905090565b60058181548110610ad657600080fd5b906000526020600020016000915054906101000a900473ffffffffffffffffffffffffffffffffffffffff1681565b6004602052806000526040600020600091509050806000015490806001018054610b2e90612b20565b80601f0160208091040260200160405190810160405280929190818152602001828054610b5a90612b20565b8015610ba75780601f10610b7c57610100808354040283529160200191610ba7565b820191906000526020600020905b815481529060010190602001808311610b8a57829003601f168201915b505050505090806002018054610bbc90612b20565b80601f0160208091040260200160405190810160405280929190818152602001828054610be890612b20565b8015610c355780601f10610c0a57610100808354040283529160200191610c35565b820191906000526020600020905b815481529060010190602001808311610c1857829003601f168201915b505050505090806003018054610c4a90612b20565b80601f0160208091040260200160405190810160405280929190818152602001828054610c7690612b20565b8015610cc35780601f10610c9857610100808354040283529160200191610cc3565b820191906000526020600020905b815481529060010190602001808311610ca657829003601f168201915b5050505050908060040154908060050160009054906101000a900473ffffffffffffffffffffffffffffffffffffffff1690806006018054610d0490612b20565b80601f0160208091040260200160405190810160405280929190818152602001828054610d3090612b20565b8015610d7d5780601f10610d5257610100808354040283529160200191610d7d565b820191906000526020600020905b815481529060010190602001808311610d6057829003601f168201915b5050505050905087565b6000606080600060606000806000600760008a73ffffffffffffffffffffffffffffffffffffffff1673ffffffffffffffffffffffffffffffffffffffff1681526020019081526020016000209050806000015481600101826002018360030160009054906101000a900473ffffffffffffffffffffffffffffffffffffffff168460070185600401548660050160009054906101000a900460ff16858054610e2f90612b20565b80601f0160208091040260200160405190810160405280929190818152602001828054610e5b90612b20565b8015610ea85780601f10610e7d57610100808354040283529160200191610ea8565b820191906000526020600020905b815481529060010190602001808311610e8b57829003601f168201915b50505050509550848054610ebb90612b20565b80601f0160208091040260200160405190810160405280929190818152602001828054610ee790612b20565b8015610f345780601f10610f0957610100808354040283529160200191610f34565b820191906000526020600020905b815481529060010190602001808311610f1757829003601f168201915b50505050509450828054610f4790612b20565b80601f0160208091040260200160405190810160405280929190818152602001828054610f7390612b20565b8015610fc05780601f10610f9557610100808354040283529160200191610fc0565b820191906000526020600020905b815481529060010190602001808311610fa357829003601f168201915b50505050509250975097509750975097509750975050919395979092949650565b600760205280600052604060002060009150905080600001549080600101805461100a90612b20565b80601f016020809104026020016040519081016040528092919081815260200182805461103690612b20565b80156110835780601f1061105857610100808354040283529160200191611083565b820191906000526020600020905b81548152906001019060200180831161106657829003601f168201915b50505050509080600201805461109890612b20565b80601f01602080910402602001604051908101604052809291908181526020018280546110c490612b20565b80156111115780601f106110e657610100808354040283529160200191611111565b820191906000526020600020905b8154815290600101906020018083116110f457829003601f168201915b5050505050908060030160009054906101000a900473ffffffffffffffffffffffffffffffffffffffff16908060040154908060050160009054906101000a900460ff169080600601549080600701805461116b90612b20565b80601f016020809104026020016040519081016040528092919081815260200182805461119790612b20565b80156111e45780601f106111b9576101008083540402835291602001916111e4565b820191906000526020600020905b8154815290600101906020018083116111c757829003601f168201915b5050505050905088565b60018060000154905081565b6060600680548060200260200160405190810160405280929190818152602001828054801561127e57602002820191906000526020600020905b8160009054906101000a900473ffffffffffffffffffffffffffffffffffffffff1673ffffffffffffffffffffffffffffffffffffffff1681526020019060010190808311611234575b5050505050905090565b60608060006060600060606000600460008973ffffffffffffffffffffffffffffffffffffffff1673ffffffffffffffffffffffffffffffffffffffff168152602001908152602001600020600101600460008a73ffffffffffffffffffffffffffffffffffffffff1673ffffffffffffffffffffffffffffffffffffffff168152602001908152602001600020600201600460008b73ffffffffffffffffffffffffffffffffffffffff1673ffffffffffffffffffffffffffffffffffffffff16815260200190815260200160002060000154600460008c73ffffffffffffffffffffffffffffffffffffffff1673ffffffffffffffffffffffffffffffffffffffff168152602001908152602001600020600301600460008d73ffffffffffffffffffffffffffffffffffffffff1673ffffffffffffffffffffffffffffffffffffffff16815260200190815260200160002060040154600460008e73ffffffffffffffffffffffffffffffffffffffff1673ffffffffffffffffffffffffffffffffffffffff168152602001908152602001600020600601600460008f73ffffffffffffffffffffffffffffffffffffffff1673ffffffffffffffffffffffffffffffffffffffff16815260200190815260200160002060050160009054906101000a900473ffffffffffffffffffffffffffffffffffffffff1686805461149290612b20565b80601f01602080910402602001604051908101604052809291908181526020018280546114be90612b20565b801561150b5780601f106114e05761010080835404028352916020019161150b565b820191906000526020600020905b8154815290600101906020018083116114ee57829003601f168201915b5050505050965085805461151e90612b20565b80601f016020809104026020016040519081016040528092919081815260200182805461154a90612b20565b80156115975780601f1061156c57610100808354040283529160200191611597565b820191906000526020600020905b81548152906001019060200180831161157a57829003601f168201915b505050505095508380546115aa90612b20565b80601f01602080910402602001604051908101604052809291908181526020018280546115d690612b20565b80156116235780601f106115f857610100808354040283529160200191611623565b820191906000526020600020905b81548152906001019060200180831161160657829003601f168201915b5050505050935081805461163690612b20565b80601f016020809104026020016040519081016040528092919081815260200182805461166290612b20565b80156116af5780601f10611684576101008083540402835291602001916116af565b820191906000526020600020905b81548152906001019060200180831161169257829003601f168201915b505050505091509650965096509650965096509650919395979092949650565b60008060000154905081565b3373ffffffffffffffffffffffffffffffffffffffff16600260009054906101000a900473ffffffffffffffffffffffffffffffffffffffff1673ffffffffffffffffffffffffffffffffffffffff161461176b576040517f08c379a000000000000000000000000000000000000000000000000000000000815260040161176290612bc4565b60405180910390fd5b6117756001611cb2565b60006117816001611cc8565b90506000600460008873ffffffffffffffffffffffffffffffffffffffff1673ffffffffffffffffffffffffffffffffffffffff1681526020019081526020016000209050858160010190805190602001906117de929190611cd6565b50848160020190805190602001906117f7929190611cd6565b5083816003019080519060200190611810929190611cd6565b50868160050160006101000a81548173ffffffffffffffffffffffffffffffffffffffff021916908373ffffffffffffffffffffffffffffffffffffffff1602179055508281600601908051906020019061186c929190611cd6565b50600081600401819055508181600001819055506003879080600181540180825580915050600190039060005260206000200160009091909190916101000a81548173ffffffffffffffffffffffffffffffffffffffff021916908373ffffffffffffffffffffffffffffffffffffffff160217905550817fd297f12b256bb8485a6013fb5e302017018123e99a0ebb20756c09e1707b4b9087878760008c8960405161191e96959493929190612c29565b60405180910390a250505050505050565b6000600380549050905090565b6060600060068054905067ffffffffffffffff81111561195f5761195e611e63565b5b60405190808252806020026020018201604052801561199857816020015b611985611d5c565b81526020019060019003908161197d5790505b50905060005b600680549050811015611caa5760076000600683815481106119c3576119c2612ca6565b5b9060005260206000200160009054906101000a900473ffffffffffffffffffffffffffffffffffffffff1673ffffffffffffffffffffffffffffffffffffffff1673ffffffffffffffffffffffffffffffffffffffff1681526020019081526020016000206040518061010001604052908160008201548152602001600182018054611a4e90612b20565b80601f0160208091040260200160405190810160405280929190818152602001828054611a7a90612b20565b8015611ac75780601f10611a9c57610100808354040283529160200191611ac7565b820191906000526020600020905b815481529060010190602001808311611aaa57829003601f168201915b50505050508152602001600282018054611ae090612b20565b80601f0160208091040260200160405190810160405280929190818152602001828054611b0c90612b20565b8015611b595780601f10611b2e57610100808354040283529160200191611b59565b820191906000526020600020905b815481529060010190602001808311611b3c57829003601f168201915b505050505081526020016003820160009054906101000a900473ffffffffffffffffffffffffffffffffffffffff1673ffffffffffffffffffffffffffffffffffffffff1673ffffffffffffffffffffffffffffffffffffffff168152602001600482015481526020016005820160009054906101000a900460ff1615151515815260200160068201548152602001600782018054611bf790612b20565b80601f0160208091040260200160405190810160405280929190818152602001828054611c2390612b20565b8015611c705780601f10611c4557610100808354040283529160200191611c70565b820191906000526020600020905b815481529060010190602001808311611c5357829003601f168201915b505050505081525050828281518110611c8c57611c8b612ca6565b5b60200260200101819052508080611ca290612cd5565b91505061199e565b508091505090565b6001816000016000828254019250508190555050565b600081600001549050919050565b828054611ce290612b20565b90600052602060002090601f016020900481019282611d045760008555611d4b565b82601f10611d1d57805160ff1916838001178555611d4b565b82800160010185558215611d4b579182015b82811115611d4a578251825591602001919060010190611d2f565b5b509050611d589190611db9565b5090565b604051806101000160405280600081526020016060815260200160608152602001600073ffffffffffffffffffffffffffffffffffffffff1681526020016000815260200160001515815260200160008152602001606081525090565b5b80821115611dd2576000816000905550600101611dba565b5090565b6000604051905090565b600080fd5b600080fd5b600073ffffffffffffffffffffffffffffffffffffffff82169050919050565b6000611e1582611dea565b9050919050565b611e2581611e0a565b8114611e3057600080fd5b50565b600081359050611e4281611e1c565b92915050565b600080fd5b600080fd5b6000601f19601f8301169050919050565b7f4e487b7100000000000000000000000000000000000000000000000000000000600052604160045260246000fd5b611e9b82611e52565b810181811067ffffffffffffffff82111715611eba57611eb9611e63565b5b80604052505050565b6000611ecd611dd6565b9050611ed98282611e92565b919050565b600067ffffffffffffffff821115611ef957611ef8611e63565b5b611f0282611e52565b9050602081019050919050565b82818337600083830152505050565b6000611f31611f2c84611ede565b611ec3565b905082815260208101848484011115611f4d57611f4c611e4d565b5b611f58848285611f0f565b509392505050565b600082601f830112611f7557611f74611e48565b5b8135611f85848260208601611f1e565b91505092915050565b60008060008060808587031215611fa857611fa7611de0565b5b6000611fb687828801611e33565b945050602085013567ffffffffffffffff811115611fd757611fd6611de5565b5b611fe387828801611f60565b935050604085013567ffffffffffffffff81111561200457612003611de5565b5b61201087828801611f60565b925050606085013567ffffffffffffffff81111561203157612030611de5565b5b61203d87828801611f60565b91505092959194509250565b6000819050919050565b61205c81612049565b82525050565b60006020820190506120776000830184612053565b92915050565b600081519050919050565b600082825260208201905092915050565b6000819050602082019050919050565b6120b281611e0a565b82525050565b60006120c483836120a9565b60208301905092915050565b6000602082019050919050565b60006120e88261207d565b6120f28185612088565b93506120fd83612099565b8060005b8381101561212e57815161211588826120b8565b9750612120836120d0565b925050600181019050612101565b5085935050505092915050565b6000602082019050818103600083015261215581846120dd565b905092915050565b61216681612049565b811461217157600080fd5b50565b6000813590506121838161215d565b92915050565b60006020828403121561219f5761219e611de0565b5b60006121ad84828501612174565b91505092915050565b6121bf81611e0a565b82525050565b60006020820190506121da60008301846121b6565b92915050565b600080604083850312156121f7576121f6611de0565b5b600061220585828601611e33565b925050602061221685828601612174565b9150509250929050565b60006020828403121561223657612235611de0565b5b600061224484828501611e33565b91505092915050565b600081519050919050565b600082825260208201905092915050565b60005b8381101561228757808201518184015260208101905061226c565b83811115612296576000848401525b50505050565b60006122a78261224d565b6122b18185612258565b93506122c1818560208601612269565b6122ca81611e52565b840191505092915050565b600060e0820190506122ea600083018a612053565b81810360208301526122fc818961229c565b90508181036040830152612310818861229c565b90508181036060830152612324818761229c565b90506123336080830186612053565b61234060a08301856121b6565b81810360c0830152612352818461229c565b905098975050505050505050565b60008115159050919050565b61237581612360565b82525050565b600060e082019050612390600083018a612053565b81810360208301526123a2818961229c565b905081810360408301526123b6818861229c565b90506123c560608301876121b6565b81810360808301526123d7818661229c565b90506123e660a0830185612053565b6123f360c083018461236c565b98975050505050505050565b600061010082019050612415600083018b612053565b8181036020830152612427818a61229c565b9050818103604083015261243b818961229c565b905061244a60608301886121b6565b6124576080830187612053565b61246460a083018661236c565b61247160c0830185612053565b81810360e0830152612483818461229c565b90509998505050505050505050565b600060e08201905081810360008301526124ac818a61229c565b905081810360208301526124c0818961229c565b90506124cf6040830188612053565b81810360608301526124e1818761229c565b90506124f06080830186612053565b81810360a0830152612502818561229c565b905061251160c08301846121b6565b98975050505050505050565b600080600080600060a0868803121561253957612538611de0565b5b600061254788828901611e33565b955050602086013567ffffffffffffffff81111561256857612567611de5565b5b61257488828901611f60565b945050604086013567ffffffffffffffff81111561259557612594611de5565b5b6125a188828901611f60565b935050606086013567ffffffffffffffff8111156125c2576125c1611de5565b5b6125ce88828901611f60565b925050608086013567ffffffffffffffff8111156125ef576125ee611de5565b5b6125fb88828901611f60565b9150509295509295909350565b600081519050919050565b600082825260208201905092915050565b6000819050602082019050919050565b61263d81612049565b82525050565b600082825260208201905092915050565b600061265f8261224d565b6126698185612643565b9350612679818560208601612269565b61268281611e52565b840191505092915050565b61269681612360565b82525050565b6000610100830160008301516126b56000860182612634565b50602083015184820360208601526126cd8282612654565b915050604083015184820360408601526126e78282612654565b91505060608301516126fc60608601826120a9565b50608083015161270f6080860182612634565b5060a083015161272260a086018261268d565b5060c083015161273560c0860182612634565b5060e083015184820360e086015261274d8282612654565b9150508091505092915050565b6000612766838361269c565b905092915050565b6000602082019050919050565b600061278682612608565b6127908185612613565b9350836020820285016127a285612624565b8060005b858110156127de57848403895281516127bf858261275a565b94506127ca8361276e565b925060208a019950506001810190506127a6565b50829750879550505050505092915050565b6000602082019050818103600083015261280a818461277b565b905092915050565b7f596f75206e65656420746f20626520746865206f7267616e697a657220746f2060008201527f637265617465206120766f746572000000000000000000000000000000000000602082015250565b600061286e602e83612258565b915061287982612812565b604082019050919050565b6000602082019050818103600083015261289d81612861565b9050919050565b7f566f74657220616c726561647920657869737473000000000000000000000000600082015250565b60006128da601483612258565b91506128e5826128a4565b602082019050919050565b60006020820190508181036000830152612909816128cd565b9050919050565b600060e082019050818103600083015261292a818a61229c565b9050818103602083015261293e818961229c565b905061294d60408301886121b6565b61295a6060830187612053565b612967608083018661236c565b61297460a0830185612053565b81810360c0830152612986818461229c565b905098975050505050505050565b7f596f7520617265206e6f7420616c6c6f77656420746f20766f74650000000000600082015250565b60006129ca601b83612258565b91506129d582612994565b602082019050919050565b600060208201905081810360008301526129f9816129bd565b9050919050565b7f596f75206861766520616c726561647920766f74656400000000000000000000600082015250565b6000612a36601683612258565b9150612a4182612a00565b602082019050919050565b60006020820190508181036000830152612a6581612a29565b9050919050565b7f4e487b7100000000000000000000000000000000000000000000000000000000600052601160045260246000fd5b6000612aa682612049565b9150612ab183612049565b9250827fffffffffffffffffffffffffffffffffffffffffffffffffffffffffffffffff03821115612ae657612ae5612a6c565b5b828201905092915050565b7f4e487b7100000000000000000000000000000000000000000000000000000000600052602260045260246000fd5b60006002820490506001821680612b3857607f821691505b60208210811415612b4c57612b4b612af1565b5b50919050565b7f596f75206e65656420746f20626520746865206f7267616e697a657220746f2060008201527f63726561746520612063616e6469646174650000000000000000000000000000602082015250565b6000612bae603283612258565b9150612bb982612b52565b604082019050919050565b60006020820190508181036000830152612bdd81612ba1565b9050919050565b6000819050919050565b6000819050919050565b6000612c13612c0e612c0984612be4565b612bee565b612049565b9050919050565b612c2381612bf8565b82525050565b600060c0820190508181036000830152612c43818961229c565b90508181036020830152612c57818861229c565b90508181036040830152612c6b818761229c565b9050612c7a6060830186612c1a565b612c8760808301856121b6565b81810360a0830152612c99818461229c565b9050979650505050505050565b7f4e487b7100000000000000000000000000000000000000000000000000000000600052603260045260246000fd5b6000612ce082612049565b91507fffffffffffffffffffffffffffffffffffffffffffffffffffffffffffffffff821415612d1357612d12612a6c565b5b60018201905091905056fea2646970667358221220309f9eacb1f75c50c0141b50bc345318b99296281126b712bec617ef625d863164736f6c63430008090033",
  "linkReferences": {},
  "deployedLinkReferences": {}
}